:1000000002308A008C2A0000FF00030E8301A10049
:100010000A08A0008A010408A2007708A300780853
:10002000A4007908A5007A08A600831383128B1E0A
:100030001B280B1932288C308400001C21280C1836
:100040003528220884002308F7002408F800250832
:10005000F9002608FA0020088A00210E8300FF0E0E
:100060007F0E09008A110A1238288A110A125B28A9
:10007000A90A0319AA0A28082A02031C5728031DE3
:10008000452827082902031C57282C302B078400F9
:1000900083130008B000831688018312300888009B
:1000A000AB0A2B08033C031CAB01AA01A9010B11ED
:1000B0008A110A1221281F151F195C2883161E0891
:1000C0008312A7001E08A8002808B1002708B00066
:1000D0008E30F7003108F8003008F900FA01F8080E
:1000E000031D7C287908F800F9010830F702F808A8
:1000F000031D7C28F70184280310F81B8328F90DC1
:10010000F80DF7037C28F8139B30B300FF30B200E2
:100110005730B1007A30B0007A08B7007908B600DD
:100120007808B5007708B400300803190429B8002E
:10013000340803190429B8070318A5287F30B8022A
:10014000031C042903190429A9288130B8070318BE
:1001500004293808F700F801F901FA013108BC0058
:10016000BC173208BB003308BA001830B800B90118
:100170003A1CD2283708FA07031CC428F90A031DC1
:10018000C428F80A0319B9173608F907031CCB2845
:10019000F80A0319B9173508B200B2173208F80780
:1001A0000318B917B90DF80CF90CFA0CBC0CBB0C00
:1001B000BA0C0310B80BB7280130F707031804294D
:1001C000F81BE928BC0DFA0DF90DF80DF70303191A
:1001D0000429BC1FFA28FA0A031DFA28F90A031D8C
:1001E000FA28F80A031DFA28F80CF90CFA0CF70A99
:1001F000031904293108B9003508B906B91F0229C5
:10020000F8170829F8130829F701F801F901FA018C
:100210007A08B3007908B2007808B1007708B00016
:1002200083103308B7003208B6003108B500300833
:10023000B400BB01BA01B9018130B8008030831825
:10024000B906BE01BF013508BD003908BD06340836
:1002500003190E2ABC00F70038080319172ABC023C
:100260000319B329031C71293908C200C2173A08BF
:10027000C1003B08C000BF010310C20CC10CC00C80
:10028000BF0CBC0B3B29BD1F48293E142B2A3E1036
:100290003C103E16373084008313402A3E12BD1BAB
:1002A0005B293C1C6629C20CC10CC00CBF0CF70AB0
:1002B0000319262A6629C21B69290310BF0DC00D28
:1002C000C10DC20DF7030319262A5B293E17D32956
:1002D0003E133508BD00BD1F6F29C2171F2AC21368
:1002E0001F2A3808BC00F7003408BC023508C200D9
:1002F000C2173608C1003708C000BF010310C20C86
:10030000C10CC00CBF0CBC0B7D29BD1F8A29BE14BB
:100310002B2ABE103C10BE163B3084008313402AAB
:10032000BE12BD1B9D293C1CA829C20CC10CC00CCF
:10033000BF0CF70A0319262AA829C21BAB290310F0
:10034000BF0DC00DC10DC20DF7030319262A9D294B
:10035000BE17D329BE133908BD00BD1FB129C2176E
:100360001F2AC2131F2A3908C200C2173A08C10047
:100370003B08C000BD1FC029C2133E152B2A3E11E9
:10038000BF013C10373084008313402ABD1BE9298C
:100390003508BD003C1CD329C20CC10CC00CBF0CDD
:1003A000F70A0319262ABF1FE429C00A031DE429FE
:1003B000C10A031DE429C20A031DE429C20CC10CB1
:1003C000C00CF70A0319262A3E1B6829BE1BAA295E
:1003D000082A8030C206C21FF1292B2A3908BD0025
:1003E000FE293508BD00C208031DFE29C108031DF2
:1003F000FE29C008031DFE29F7011F2AC21B082A77
:100400000310BF0DC00DC10DC20DF70BFE29262A2A
:10041000BD1F0C2AC2171F2AC2131F2A3808F70053
:100420003908C2003A08C1003B08C0001F2A34083E
:10043000F7003508C2003608C1003708C00042087E
:10044000F8004108F9004008FA005E2AF701F801B7
:10045000F901FA015E2ABF01C009C109C209BF0939
:10046000BF0A031D392AC00A031D392AC10A03190C
:10047000C20A3E184729BE1889293E19BF29EE290C
:100480000008C007031C4A2AC10A031D4A2AC20ADF
:1004900003193C1484030008C107031C522AC20A32
:1004A00003193C1484030008801F803AC207031814
:1004B0003C143E1A4E29BE1A9029C6297A08B30068
:1004C0007908B2007808B1007708B0008E30F700E4
:1004D0003008F7023108F9003208F800F917F70878
:1004E00003197D2A0310F908031D792AF808031956
:1004F0007D2AF90CF80CF70B722AB11F842AF8092F
:10050000F909F80A0319F90A7908A8007808A70078
:100510000C108A110A12212803081F398300AA012E
:10052000A901AB0183161F149F141F159F110730DB
:100530009C00831301308312AC000430AD00023004
:10054000AE000830AF0083161F109F141F159F15B3
:100550001F1383121F179F1783169F1783121F14D1
:1005600083160108C03904388100B5308312900029
:100570008B1683160C14C03083128B04BE2A6300C2
:02400E00723FFF
:00000001FF
;PIC16F877A
;CRC=2777  CREATED="20-mar-19 13:20"
