:1000000001308A0026290000FF00030E8301A100B1
:100010000A08A0008A010408A2007708A300780853
:10002000A4007908A5007A08A600831383128B1E0A
:100030001B280B1932288C308400001C21280C1836
:100040003528220884002308F7002408F800250832
:10005000F9002608FA0020088A00210E8300FF0E0E
:100060007F0E09008A110A1238288A110A1269289B
:100070002B082F02031D5D282C083002031D5D286C
:100080002D083102031D5D282E083202031D5D2854
:1000900034303307840083130008B90083168801C5
:1000A000831239088800B30A3308033C031CB301E8
:1000B000B201B101B001AF0165280130AF070318EB
:1000C000B00A0319B10A0319B20A0B118A110A12F4
:1000D00021281F151F196A2883161E088312A700DE
:1000E0001E08A800A901AA012808BA002708B9001B
:1000F0003A08BC003908BB00BE01BD010330C00096
:10010000FF30BF00C2016430C1000330C400E830DA
:10011000C3003D083B02C5003C08C6003E08031C66
:100120003E0FC60241084302F7004408FA004208A5
:10013000031C420FFA027708C7007A08C800460875
:10014000CA004508C9004808CC004708CB00103059
:10015000CD00F701FA01CA0CC90C031CB5284B08E5
:10016000F7070318FA0A4C08FA07FA0CF70CF90C0F
:10017000F80CCD0BAB287908C6007808C5003D08FF
:100180003F02F7004008FA003E08031C3E0FFA0247
:100190007708C7007A08C8004608CA004508C900A1
:1001A0004808CC004708CB00F801F901F701FA0133
:1001B0004C08031DDE284B080319F8281030CD0029
:1001C0000310C90DCA0DF70DFA0D4C087A02031D74
:1001D000EB284B087702031CF4284B08F702031C9A
:1001E000FA034C08FA020314F80DF90DCD0BE028C0
:1001F0007908C6007808C50041087807F800790832
:10020000FA0042080318420FFA077A08F900AE0113
:10021000AD01AC017808AB000C108A110A1221283C
:100220003830840083130008031923290630F800AE
:10023000F701F70B1929F80B18297B30F700F70B9A
:100240001F29800B16298A110A12542903081F3905
:100250008300B201B101B001AF01B30183161F14D5
:100260009F141F159F1107309C00831301308312C8
:10027000B4000430B5000230B6000830B700831671
:100280000108C739083881008530831290008B1629
:1002900083160C14C03083128B048316061083124D
:1002A00006146430B8001029831606108312061055
:0402B0004D29630071
:02400E00723FFF
:00000001FF
;PIC16F877A
;CRC=F9ED  CREATED="19-mar-19 22:55"
