:1000000000308A008A2800002708F8012602031819
:100010000C282608F7001828F7010830A800A60DBC
:10002000F70D270877020318F700F80DA80B0F2823
:1000300008002608003A03193928013A03193F2815
:10004000033A03194528013A03194B28073A0319C3
:100050005128013A03195728033A03195D28013A38
:10006000031963280F3A03196928013A03196F2805
:10007000752883168801C03083128800752883167E
:100080008801F93083128800752883168801A4300E
:1000900083128800752883168801B0308312880087
:1000A0007528831688019930831288007528831675
:1000B0008801923083128800752883168801823067
:1000C00083128800752883168801F830831288000F
:1000D000752883168801803083128800752883165E
:1000E0008801983083128800752808002630840023
:1000F00083130008031989280630F800F701F70B6D
:100100007F28F80B7E287B30F700F70B8528800BC3
:100110007C28080003081F398300FF30A0008316E5
:100120001F149F141F159F1107309C0083131F106D
:100130009F141F159F151F1783121F139F178316D8
:100140009F1383121F141F151F19A428A3011E0833
:10015000A200A1012108A6000A30A7000420770808
:10016000A4002108A6000A30A70004207808A500F2
:100170002010200883168700831207142508A60084
:1001800019200530A600762020102008831687004D
:1001900083120710A010200883168700831287148B
:1001A0002408A60019200530A6007620A0102008FB
:0C01B0008316870083128710A3286300C9
:02400E00723FFF
:00000001FF
;PIC16F877A
;CRC=4BA1  CREATED="25-fev-19 10:00"
