:1000000005308A00802D0000FF00030E8301A1004F
:100010000A08A0008A010408A2007708A300780853
:10002000A4007908A5007A08A60003170D08031399
:10003000A70003170F080313A80003170C080313E6
:10004000A90003170E080313AA00831383128B1E43
:100050002B280B194C28220884002308F7002408B9
:10006000F8002508F9002608FA00270803178D0074
:100070000313280803178F000313290803178C00A4
:1000800003132A0803178E00031320088A00210E89
:100090008300FF0E7F0E09008A110A1263280A10DE
:1000A0008A100A1182073134323433344134343403
:1000B00035343634423437343834393443342A34DE
:1000C000303423344434B70803199628B80A361C50
:1000D0008128BD1B6F283D08033C031CBD01370868
:1000E0003802031C802839303D0784008313000840
:1000F000D90083168601831259088600BD0AB8010B
:100100009628BD1F85280330BD0037083802031C20
:10011000962839303D07840083130008D9008316E0
:100120008601831259088600BD03B801B61CB428A5
:100130009B011D08CF399D005330F700F70B9E2817
:100140003F08F9003E08F800F90CF80CF90CF80C1F
:10015000F90C78089500F90C790C3039F70017087C
:10016000CF3977049700CF2895011708CF3997002A
:100170005330F700F70BBA283F08F9003E08F800A3
:10018000F90CF80CF90CF80CF90C78089B00F90C38
:10019000790C3039F7001D08CF3977049D000B1119
:1001A0008A110A122B280C2B6536EF316932613225
:1001B0006510CD37F43772050000D030F339EF1EEB
:1001C000A5312022C31E2532000083160810831299
:1001D0000810831688108312881083160811831262
:1001E000081183168811831288118316081088104D
:1001F00008118811081688160817881783128A11A3
:100200000A12EB2D4F3084008313000803191529BF
:100210000630F800F701F70B0B29F80B0A297B30A1
:10022000F700F70B1129800B0829080056181A2926
:1002300085121B298516831685128312D61822294A
:1002400005122329051683160512831256192A2929
:1002500085112B298515831685118312D61932290C
:1002600005113329051583160511000083120914A1
:10027000831609100330F700F70B3C29831209108D
:100280008316091083120800D701831685160030E3
:100290008312851A0130D7048316051600308312A5
:1002A000051A0130F7000310F70D7708D7048316FD
:1002B00085150030831285190130F700F70DF70D11
:1002C000FC30F7057708D704831605150030831234
:1002D00005190130F700F70DF70DF70DF830F705A8
:1002E0007708D7045708F800080083160910091189
:1002F00089108312091183160911851605168515B3
:1003000005158312891483168910000083120914BD
:10031000831609100000831244217808D6000910C2
:1003200083160910000083120914831609109829F6
:1003300099290000831244217808D50009108316FA
:10034000091085120512851105118312560EF7004A
:10035000F030F70577085504F8007808D500D51F68
:10036000B32983167D29D308031DB8290911B9299A
:10037000091583160911000083128910831689104C
:10038000000083120910831609108312540ED50041
:100390000F30D5055508D600162154080F39D50061
:1003A000D600162108002830C9000C30CA000130E0
:1003B000CB000630CC0009108316091083120911F6
:1003C000831609118312891083168910851205126C
:1003D000851105110910091189100F308312CF0002
:1003E00002210130C8004808033C031CFF290330E8
:1003F000D60016210530CF000221C80AF3290230A9
:10040000D60016210530CF000221C8014808033C60
:10041000031C162A49304807840083130008CD00C6
:10042000D3014D08D4007521C80A062A8A110A1280
:10043000EC2D8E30F7004908F8004808F900FA0161
:10044000F808031D2D2A7908F800F9010830F70291
:10045000F808031D2D2AF701352A0310F81B342A4A
:10046000F90DF80DF7032D2AF8138A110A12FE2D43
:1004700048080319A82AD0004C080319A82AD00755
:100480000318492A7F30D002031CA82A0319A82A7E
:100490004D2A8130D0070318A82A5008F700F80128
:1004A000F901FA014908D400D4174A08D3004B08CF
:1004B000D2001830D000D101521C762A4F08FA071A
:1004C000031C682AF90A031D682AF80A0319D117C0
:1004D0004E08F907031C6F2AF80A0319D1174D08B3
:1004E000CA00CA174A08F8070318D117D10DF80C2B
:1004F000F90CFA0CD40CD30CD20C0310D00B5B2AE1
:100500000130F7070318A82AF81B8D2AD40DFA0D1D
:10051000F90DF80DF7030319A82AD41F9E2AFA0A29
:10052000031D9E2AF90A031D9E2AF80A031D9E2A0E
:10053000F80CF90CFA0CF70A0319A82A4908D1009B
:100540004D08D106D11FA62AF817AC2AF813AC2AF9
:10055000F701F801F901FA018A110A120F2E8E3003
:10056000F7004808F7024908F9004A08F800F917A7
:10057000F7080319C62A0310F908031DC22AF80850
:100580000319C62AF90CF80CF70BBB2AC91FCD2A90
:10059000F809F909F80A0319F90A8A110A12182E3A
:1005A000831608108312081083168810831288108F
:1005B000831608118312081183168811831288117B
:1005C0004C080319ED2A013A0319F22A033A0319D8
:1005D000F72A013A0319FC2A012B8316081083120B
:1005E0000814012B8316881083128814012B83169C
:1005F000081183120815012B8316881183128815A0
:10060000012B08004C08FC3E0318282B043E2D2B20
:100610008316081600308312081A0130F8002A2BBE
:100620008316881600308312881A0130F8002A2BAE
:100630008316081700308312081B0130F8002A2B9C
:100640008316881700308312881B0130F8002A2B8C
:100650000030F8008A110A12772B0A148A140A1142
:100660008207082B102B182B202B0F08FA000E08DE
:10067000F7000F087A02031D352B77080C1C522B4C
:100680000130AB070318AC0A0319AD0A0319AE0A0F
:100690000C100F08FA000E08F7000F087A02031D6D
:1006A000492B77087A08F7002B08F8002C08F90086
:1006B0002D08FA002E08CA00CA0CFA0CF90CF80C26
:1006C000F70C0800CA014A08033C031C8C2B4A089B
:1006D000CC00D0222930F700F70B6C2B0000CB01A7
:1006E0004B08033C031C8A2B4B08CC00022BF80858
:1006F0000319882B0430CC00D0224B0DF700F70DE6
:10070000FC30F70577084A074F20F800F800912BD6
:10071000CB0A702BCA0A632B0430CC00D0220030E5
:10072000F8007808C900B0080319A62B3008490260
:100730000319A62BB00135237A08B5007908B40057
:100740007808B3007708B2000330B100310803190C
:10075000B22B013A0319C32B033A0319EC2B013ACC
:100760000319F22BC9080319C22B35237A08B500E7
:100770007908B4007808B3007708B2004908B000DF
:100780000130B100162C35237A08CD007908CC0051
:100790007808CB007708CA003208CA023308031C65
:1007A000330FCB023408031C340FCC023508031C72
:1007B000350FCD02CD08031DE72BCC08031DE72B19
:1007C000CB08031DE72B4A085C3C0318EB2B4908B8
:1007D000AF000230B100162CB008031DF12B02301F
:1007E000B100162C35237A08CD007908CC007808A2
:1007F000CB007708CA003208CA023308031C330F43
:10080000CB023408031C340FCC023508031C350F0F
:10081000CD02CD08031D152CCC08031D152CCB08CB
:10082000031D152C4A085C3C031CB101AF08031DD5
:100830001B2C00301C2C0130F8002F08C800AF0121
:100840004808F8008A110A122A2E500B282C2B2C4B
:100850004030D1002C2CD10101304F02D10751087A
:100860008038D200D3015208D400752108004E0808
:10087000073A0319452C0B3A03194A2C063A031977
:10088000522C023A0319582C5D2C0130CF00D000B5
:100890002524622CD3010130D40075210230CF0011
:1008A0000221622C0130CF000230D0002524622CBE
:1008B000D3011030D4007521622C0130D3004E08D2
:1008C000D400752108000B08C8008B13831603178A
:1008D0008C170C140000000083120313C81B8B1725
:1008E00003170C087F390319B72C0313C80003172B
:1008F0000D080313C90003170F080313CA004808A3
:10090000CE003724490803178D0003134A08031744
:100910008F0003130B08CB008B13831603178C1760
:100920000C140000000083120313CB1B8B1703175A
:100930000C0D0E0D7F390319B72C0313C8000317D4
:100940000D080313C90003170F080313CA00480852
:10095000CE003724490803178D0003134A080317F4
:100960008F008D0A03198F0A0313632C03170313D7
:100970008A110A12802E0B08C9008B1383160317E5
:100980008C170C140000000083120313C91B8B1773
:100990000318F22C03170C087F390313C90003173F
:1009A0000D080313CA0003170F080313CB004908EF
:1009B000CE0037244A0803178D0003134B08031792
:1009C0008F0003130B08CC008B13831603178C17AF
:1009D0000C140000000083120313CC1B8B17C80BF0
:1009E000F22C112D03170C0D0E0D7F390313C900C6
:1009F00003170D080313CA0003170F080313CB00D6
:100A00004908CE0037244A0803178D0003134B080A
:100A100003178F008D0A03198F0A03100313C80BE5
:100A2000BB2C08004F08F8014E0203181A2D4E087F
:100A3000F700262DF7010830D000CE0DF70D4F0836
:100A400077020318F700F80DD00B1D2D0800203099
:100A5000491E3030CA004808F700C81F372DF70973
:100A6000F70A7708C8002D30CA00C917491448088A
:100A7000CE006430CF0012257708C80030307807E8
:100A8000CB004808CE000A30CF001225303077075F
:100A9000CD0030307807CC004A08F70030304B02E8
:100AA0000319562DC914C91B49156A2D4A08CB00D4
:100AB0002030CA0030304C020319622D4914C91B82
:100AC000C9146A2D031D4914031D6A2D4B08CC005F
:100AD0002030CB004919712DC918742D4918772D74
:100AE0007A2D4A08CE0037244B08CE0037244C0814
:100AF000CE0037244D08CE0037248A110A129C2ECE
:100B000003081F398300AE01AD01AC01AB01B53064
:100B100090008E018F018E010C10AF013610B701CD
:100B2000B801BD01BF01BE01C001B6103030C10027
:100B3000C200FF30C500C701C60183161F149F14F1
:100B40001F159F1107309C0083138312B001B10160
:100B5000B201B301B401B5010130B9000230BA00ED
:100B60000430BB000830BC0083161F109F141F15F3
:100B70009F151F1383121F179F1783169F1783122A
:100B80001F1483160108C039043881000030F800B2
:100B9000063883129200FF308316920083128B1660
:100BA000C0308B0445114508831687008312071156
:100BB0000C309700C51045088316870083128710F4
:100BC0000C309D0095011708CF3997009B011D0837
:100BD000CF399D00E528D3291F151F19ED2D831648
:100BE0001E088312BE001E08BF005330F700F70B2B
:100BF000F72D3F08C9003E08C800192A7A08CB0023
:100C00007908CA007808C9007708C8000C30CF00FE
:100C10003230CE004830CD007B30CC00382A7A0804
:100C2000CB007908CA007808C9007708C800AF2A45
:100C30007808C000831685148312851C292E83161C
:100C40008514831285181F2EB61C282EB610292E47
:100C5000B614622B7808C1000130CF000221C10810
:100C600003196D2E4108313A03194C2E033A03192A
:100C7000512E013A0319562E073A03195B2E013AF9
:100C80000319602E053A0319652E1A3A0319692EC5
:100C9000093A03196B2E6D2E3C30B7004108C20093
:100CA0006D2E2D30B7004108C2006D2E1E30B700EA
:100CB0004108C2006D2E0F30B7004108C2006D2EF2
:100CC0000530B7004108C2006D2EB7014108C200CF
:100CD0006D2E36106D2E36146D2E43084202031D04
:100CE000752E4408400203199C2E4208C300400898
:100CF000C400D33003178D0000308F000313632C22
:100D0000DD3003178D0000308F0003100630031311
:100D1000C800BB244308CE003724E13003178D0000
:100D200000308F00031004300313C800BB244408B4
:0C0D3000C8001830C900272DEC2D63000E
:02400E00323F3F
:00000001FF
;PIC16F877A
;CRC=8569  CREATED="13-mai-19 09:41"
