:1000000000308A0033280000FF00030E8301A100A6
:100010000A08A0008A010408A2007708A300780853
:10002000A4007908A5007A08A600831383128B1D0B
:100030001B280B182C28220884002308F70024080A
:10004000F8002508F9002608FA0020088A00210E89
:100050008300FF0E7F0E09008A110A122F280B1051
:100060008A110A121B2803081F3983008130831666
:100070009900A630980090308312980083161F14C0
:100080009F141F159F1107309C0083131F109F148E
:100090001F159F151F1383121F179F1783169F1776
:0E00A00083121F148B15C0308B04552863008B
:02400E00323F3F
:00000001FF
;PIC16F877A
;CRC=FE94  CREATED="02-abr-19 08:58"
