:1000000000308A0004280000FF238316900000308F
:100010008A00982883168510831285100830A10065
:1000200011280000A1172228A113AF0C0318851472
:10003000031C8510211722282113A10B1528202825
:10004000000085141C308400840B24282728A11B61
:100050001428211B1C2808000408AE00280EF038C4
:10006000AA00AA07E23EAB00323EAD0028080F39D5
:10007000AB07AB07AD07E93EAC00AC07AC07270EFA
:100080000F39AC07AD07AC0DAD0DAD09AD0D2708AF
:100090000F39AD07AA0D0730A9000A30AD07AC0330
:1000A000031C4E28AC07AB03031C5228AB07AA0362
:1000B000031C5628AA07A903031C5A2829308400C8
:1000C00007302E052E1384072D30040203192E1736
:1000D0000008A000031D74282E1B74282E1A8028E7
:1000E000AE19742820307728AE152E123030A007B4
:1000F000A8010408A7002008AF000A2027088400F0
:10010000840A2E1F6428C42827308400000803199D
:1001100097280130A100A001A00B8C28A10B8B28EF
:100120004A30A000A00B92289528800B892808004F
:1001300003081F39830083168510831285141F134B
:1001400083161F109F101F119F11073083129900F3
:100150001F1383161F149F101F119F111F129F1230
:100160001F1383129F171F149F149F18B5288316FF
:100170001E088312A5001E08A60010308400260861
:10018000A8002508A7002C280A30AF000A200D304F
:10019000AF000A200F30A70084202608013C031876
:1001A000E028FF3A031DD8282508BC3C0318E028A6
:1001B00083168511831285150530A7008420E72852
:1001C00083168511831285110530A7008420B42879
:0201D0006300CA
:02400E0084111B
:00000001FF
;PIC12F675
;CRC=A444  CREATED="15-abr-19 13:25"
