:1000000000308A0018280000233084008313000881
:10001000031917280630F800F701F70B0D28F80B25
:100020000C287B30F700F70B1328800B0A280800F8
:1000300003081F39830083161F149F141F159F1177
:1000400007309C0083130610831206148316861053
:1000500083128610831606118312061183168611E9
:100060008312861183160612831206168316051450
:100070008312051C86280430A200FA30A300042055
:10008000A20B3D28831606108312061083168610D5
:10009000831286140230A200FA30A3000420A20BBF
:1000A0004C2883168610831286108316061183123D
:1000B000061583168611831286158316061283127F
:1000C00006120630A200FA30A3000420A20B632817
:1000D0000130A10021080A3C031C86288316061261
:1000E000831206160230A200FA30A3000420A20BED
:1000F000742883160612831206120230A200FA3008
:10010000A3000420A20B7F28A10A6A2883162328B3
:0201100063008A
:02400E00723FFF
:00000001FF
;PIC16F877A
;CRC=3943  CREATED="16-fev-19 23:38"
