:1000000008308A0000280000FF00030E8301A100D1
:100010000A08A0008A010408A2007708A300780853
:10002000A4007908A5007A08A60003170D08031399
:10003000A70003170F080313A80003170C080313E6
:10004000A90003170E080313AA00831383120B1EC3
:100050002B288B184C28220884002308F70024083A
:10006000F8002508F9002608FA00270803178D0074
:100070000313280803178F000313290803178C00A4
:1000800003132A0803178E00031320088A00210E89
:100090008300FF0E7F0E09008A110A124F28BC0A46
:1000A0003C080A3C03185928BC01831686108312A9
:1000B00086103D083C02031D6128831686108312BA
:1000C00086148B108A110A122B28D4326D383A10FC
:1000D00025330000A02272396F3921100000D0248E
:1000E000441DA01266100001F332741DA0126905B0
:1000F00080330330E502031C8728653084008313B6
:1001000000080319872885288528800B8428080083
:10011000631083168612831286120230E400F930CF
:10012000E5007920E40B8F28831686167430F700DB
:10013000F70B9828000086168312861AA7286314E6
:100140000230E400D630E5007920E40BA22800302C
:1001500063180130F80008000130E4006408083C2E
:10016000031CD7280310E30C003003180130E5000E
:100170006508E60083168612831286120330F700A4
:10018000F70BC028E608031DC7288612C828861664
:10019000831686126330F700F70BCC28CF2886161B
:1001A0000330F700F70BD2288312E40AAE280800C8
:1001B00083168612831286120330F700F70BDE28AF
:1001C000831686160D30F700F70BE4288616831287
:1001D0006510861A6514C730F700F70BED28F02874
:1001E000003065180130F8000800E3016308073C9F
:1001F000031C0429D820F808031D00290310012935
:100200000314E40CE30AF6286408F80008008820C8
:10021000F808031D0E290030F8001629CC30E30041
:10022000AC204430E300AC200130F800F808031D96
:100230001C290030F8004529D820F80803191C298A
:100240005E08E0005D08DF008820F808031D2B2908
:100250000030F8004429CC30E300AC20BE30E3008D
:10026000AC20F5207808E100F5207808E2005F086E
:100270008400831360188317840A62088000840353
:10028000610880000130F80078088A150A124F28AA
:100290008E30F7005E08F8005D08F900FA01DE1FF5
:1002A0005629F809F909F90A0319F80AF808031D8B
:1002B00063297908F800F9010830F702F808031DEE
:1002C0006329F7016C290310F81B6A29F90DF80D51
:1002D000F7036329DE1FF8138A150A1259286508E7
:1002E0000319342AF10069080319342AF102031CA6
:1002F0007E297F30F1070318342A84298130F102E6
:10030000031C342A0319342A7108F700F801F90193
:10031000FA01F0016608EF00EF176708EE006808C1
:10032000ED001930F1006C08ED020318A729013027
:10033000EE020318A729EF020318A729F0020318F9
:10034000A729F00AEF0AEE0A6C08ED07D9296B0815
:10035000EE020318C2290130EF020318C229F0028D
:100360000318C229F00AEF0A6B08EE076C08ED07C4
:10037000031CD929EE0A031DD929EF0A031DD92927
:10038000F00AD9296A088038EF020318D829013009
:10039000F0020318D829F00A6A088038EF076B08C2
:1003A000EE07031CB629EF0A031DB629F00AB62989
:1003B0007A14F10BDC29E7290310ED0DEE0DEF0D9A
:1003C000F00D0310FA0DF90DF80DF20D9329721CC2
:1003D000EF290310F80CF90CFA0CF20CF229F703D0
:1003E0000319342AF21B1B2A0310ED0DEE0DEF0D3D
:1003F000F00D6C08ED020318072A0130EE02031815
:10040000072AEF020318072AF002031C2A2A6B08A6
:10041000EE020318122A0130EF020318122AF0022A
:10042000031C2A2A6A088038EF0203181B2A0130AD
:10043000F002031C2A2AFA0A031D2A2AF90A031DBC
:100440002A2AF80A031D2A2AF70A0319342AF80C63
:10045000F90CFA0C6608F1006A08F106F11F322A5D
:10046000F817382AF813382AF701F801F901FA01C8
:1004700008002B132B0883168700831207130830FC
:10048000F800422A0000F817532AF813EA0C031860
:100490000717031C07137817532A7813F80B462AFB
:1004A000512A00000717A7308400840B552A582AC8
:1004B000F81B452A781B4D2A08000B08DE008B1319
:1004C000831603178C170C1400000000831203130B
:1004D000DE1B8B170318942A03170C087F390313AC
:1004E000DE0003170D080313DF0003170F080313C3
:1004F000E0005E08EA0039225F0803178D0003134D
:10050000600803178F0003130B08E1008B13831699
:1005100003178C170C140000000083120313E11B57
:100520008B17DD0B942AB32A03170C0D0E0D7F39A0
:100530000313DE0003170D080313DF0003170F0872
:100540000313E0005E08EA0039225F0803178D00FC
:100550000313600803178F008D0A03198F0A031015
:100560000313DD0B5D2A08006A080319242BF2002F
:100570006E080319242BF2070318C52A7F30F202F4
:10058000031C242B0319242BC92A8130F2070318DA
:10059000242B7208F700F801F901FA016B08F60044
:1005A000F6176C08F5006D08F4001830F200F3013E
:1005B000741CF22A7108FA07031CE42AF90A031DC5
:1005C000E42AF80A0319F3177008F907031CEB2A49
:1005D000F80A0319F3176F08EC00EC176C08F8071A
:1005E0000318F317F30DF80CF90CFA0CF60CF50CD4
:1005F000F40C0310F20BD72A0130F7070318242B51
:10060000F81B092BF60DFA0DF90DF80DF703031978
:10061000242BF61F1A2BFA0A031D1A2BF90A031DA5
:100620001A2BF80A031D1A2BF80CF90CFA0CF70A0E
:100630000319242B6B08F3006F08F306F31F222B1A
:10064000F817282BF813282BF701F801F901FA0104
:10065000080083182E2B723084008313F701F801F1
:10066000F901FA01F201F301F401F50171087004D6
:100670006F046E0403196C2B2030F6000310EA0D92
:10068000EB0DEC0DED0DF20DF30DF40DF50D710804
:100690007502031D552B70087402031D552B6F083E
:1006A0007302031D552B6E087202031C662B6E0825
:1006B000F2026F08031C6F0FF3027008031C700F27
:1006C000F4027108031C710FF5020314F70DF80D05
:1006D000F90DFA0DF60B3E2B72088000840A7308A0
:1006E0008000840A74088000840A7508800008006D
:1006F0000408E2006108E4000319972B6008ED008C
:100700005F08EC005E08EB005D08EA00F101F00113
:100710002030EF008230EE00B4227A08E000790841
:10072000DF007808DE007708DD00E40B7E2B600830
:10073000ED005F08EC005E08EB005D08EA006A0867
:10074000B63CEA00FA016B08EE00EB170310EB0C65
:10075000EC0CED0CFA0CF90CF80CF70CEA0BA62BD0
:10076000EE1FBD2BF709F809F909FA09F70A031971
:10077000F80A0319F90A0319FA0A7A08E000790855
:10078000DF007808DE007708DD00E01FD42BE203ED
:10079000E216DD09DE09DF09E009DD0A0319DE0AD8
:1007A0000319DF0A0319E00A3B30E9009A30E80038
:1007B000CA30E700E6010A30E40061080319E20AE2
:1007C00083145D30840083136008ED005F08EC0043
:1007D0005E08EB005D08EA006908F1006808F000B7
:1007E0006708EF006608EE0029237808F708031D64
:1007F0000C2C610A640203190C2C620803190E2CDC
:100800000F3964020319062C03183E2CE21B3E2C00
:10081000621B0E2C20303A2C2030E205E21E1C2CEC
:10082000E2126108031DE2037708E2002D30EA00BE
:1008300039226208F700E20161086402031D2A2CD4
:100840007708E2002E30EA0039226208F7002030F3
:10085000E20500303030E21E3A2CE2126108031D3E
:10086000E2037708E2002D30EA0039226208F7003F
:10087000E2013030F7077708EA003922831069086F
:10088000ED006808EC006708EB006608EA00F1017B
:10089000F001EF010A30EE0029237A08E900790817
:1008A000E8007808E7007708E600E40BE02B080092
:1008B0000B08DD008B13831603178C170C14000034
:1008C000000083120313DD1B8B1703170C087F39FD
:1008D0000319AC2C0313DD0003170D080313DE000E
:1008E00003170F080313DF005D08EA0039225E08D2
:1008F00003178D0003135F0803178F0003130B0802
:10090000E0008B13831603178C170C1400000000F3
:1009100083120313E01B8B1703170C0D0E0D7F3989
:100920000319AC2C0313DD0003170D080313DE00BD
:1009300003170F080313DF005D08EA0039225E0881
:1009400003178D0003135F0803178F008D0A031927
:100950008F0A0313582C031703138A150A129E28B3
:100960008E30F7005E08F8005D08F900FA01F8081B
:10097000031DC42C7908F800F9010830F702F808C3
:10098000031DC42CF701CC2C0310F81BCB2CF90D44
:10099000F80DF703C42CF8138A150A12A428803026
:1009A0008318E606EB01EC016208EA006608EA0635
:1009B00061080319BF2DE900F70065080319C82D68
:1009C000E9020319642D031C222D6608EF00EF17BE
:1009D0006708EE006808ED00EC010310EF0CEE0C68
:1009E000ED0CEC0CE90BEC2CEA1FF92C6B14DC2D54
:1009F0006B1069106B16643084008313F12D6B1239
:100A0000EA1B0C2D691C172DEF0CEE0CED0CEC0CF9
:100A1000F70A0319D72D172DEF1B1A2D0310EC0D14
:100A2000ED0DEE0DEF0DF7030319D72D0C2D6B1700
:100A3000842D6B136208EA00EA1F202DEF17D02DDA
:100A4000EF13D02D6508E900F7006108E90262089C
:100A5000EF00EF176308EE006408ED00EC010310EF
:100A6000EF0CEE0CED0CEC0CE90B2E2DEA1F3B2DE0
:100A7000EB14DC2DEB106910EB1668308400831347
:100A8000F12DEB12EA1B4E2D691C592DEF0CEE0CCB
:100A9000ED0CEC0CF70A0319D72D592DEF1B5C2D2B
:100AA0000310EC0DED0DEE0DEF0DF7030319D72D2F
:100AB0004E2DEB17842DEB136608EA00EA1F622D1A
:100AC000EF17D02DEF13D02D6608EF00EF17670852
:100AD000EE006808ED00EA1F712DEF136B15DC2D99
:100AE0006B11EC016910643084008313F12DEA1B53
:100AF0009A2D6208EA00691C842DEF0CEE0CED0CB7
:100B0000EC0CF70A0319D72DEC1F952DED0A031DE8
:100B1000952DEE0A031D952DEF0A031D952DEF0C63
:100B2000EE0CED0CF70A0319D72D6B1B192DEB1BDF
:100B30005B2DB92D8030EF06EF1FA22DDC2D66084E
:100B4000EA00AF2D6208EA00EF08031DAF2DEE08A2
:100B5000031DAF2DED08031DAF2DF701D02DEF1BA9
:100B6000B92D0310EC0DED0DEE0DEF0DF70BAF2DC4
:100B7000D72DEA1FBD2DEF17D02DEF13D02D65080F
:100B8000F7006608EF006708EE006808ED00D02D5A
:100B90006108F7006208EF006308EE006408ED00EA
:100BA0006F08F8006E08F9006D08FA000F2EF701C3
:100BB000F801F901FA010F2EEC01ED09EE09EF0938
:100BC000EC09EC0A031DEA2DED0A031DEA2DEE0ADD
:100BD0000319EF0A6B18F82CEB183A2D6B19702DCE
:100BE0009F2D0008ED07031CFB2DEE0A031DFB2DB6
:100BF000EF0A0319691484030008EE07031C032E8F
:100C0000EF0A0319691484030008801F803AEF0774
:100C1000031869146B1AFF2CEB1A412D772D08006D
:100C20006408F80163020318182E6308F700242EE5
:100C3000F7010830E500E30DF70D640877020318AB
:100C4000F700F80DE50B1B2E080020305E1E30303B
:100C5000DF005D08F700DD1F352EF709F70A77087A
:100C6000DD002D30DF00DE175E145D08E300643028
:100C7000E40010267708DD0030307807E0005D08DA
:100C8000E3000A30E400102630307707E20030300D
:100C90007807E1005F08F700303060020319542E36
:100CA000DE14DE1B5E15682E5F08E0002030DF00DA
:100CB000303061020319602E5E14DE1BDE14682ED4
:100CC000031D5E14031D682E6008E1002030E00063
:100CD0005E196F2EDE18722E5E18752E782E5F0844
:100CE000EA0039226008EA0039226108EA00392264
:100CF0006208EA0039228A150A1292295E308400BD
:100D0000831300080319912E0630F800F701F70B42
:100D1000872EF80B862E7B30F700F70B8D2E800B7D
:080D2000842E8A150A129E2997
:1010000003081F398300FF30AB002B132B08831616
:10101000870083120717BA01BB01BC01BD01233051
:10102000BE00CD30C200CC30C1005C30C000843086
:10103000BF00C601C5014030C4008130C300CA01F1
:10104000C9014030C8007F30C700CE01CD01CC01BE
:10105000CB01D201D101D001CF01D601D501D401FC
:10106000D301DA01D901D801D701DC01DB018316F4
:101070001F149F141F159F1107309C0083138312A8
:10108000AC01AD01B801831601178C1683120B1643
:10109000C0308B04DE013230DD008A1107298A1549
:1010A000F808031996283308DE003208DD008A119B
:1010B00048298A157A08E0007908DF007808DE0000
:1010C0007708DD006008E8005F08E7005E08E600DA
:1010D0005D08E500EC01EB01EA018330E9008A11CB
:1010E0006F218A157A08B7007908B6007808B5002C
:1010F0007708B400653003178D0000308F000310AF
:1011000006300313DD008A115D228A1589308400C0
:101110003708E0003608DF003508DE003408DD005F
:101120000230E1008A1178238A159F286A3003175C
:101130008D0000308F008A110313582C8A15DE01B0
:101140003E08DD008A11B02C8A1583147A08E40069
:101150007908E3007808E2007708E1003708E80042
:101160003608E7003508E6003408E5008A11CF2488
:101170008A157A08D6007908D5007808D40077084F
:10118000D30083145608E4005508E3005408E20035
:101190005308E1004E08E8004D08E7004C08E6005F
:1011A0004B08E5008A11CF248A157A08E0007908F7
:1011B000DF007808DE007708DD004E08ED004D08FE
:1011C000EC004C08EB004B08EA004A08F100490823
:1011D000F0004808EF004708EE008A11B4228A1593
:1011E0007A08E4007908E3007808E2007708E10073
:1011F0006408E8006308E7006208E6006108E500AB
:101200004608EC004508EB004408EA004308E90002
:101210008A116F218A1583106008E4005F08E300DB
:101220005E08E2005D08E1007A08E8007908E7005E
:101230007808E6007708E5008A11CF248A1542086D
:10124000ED004108EC004008EB003F08EA007A0896
:10125000F1007908F0007808EF007708EE008A11B5
:10126000B4228A1583105A08E4005908E30058088C
:10127000E2005708E1007A08E8007908E7007808FA
:10128000E6007708E5008A11CF248A157A08D20093
:101290007908D1007808D0007708CF000430BD006D
:1012A0005608CE005508CD005408CC005308CB009A
:1012B0005208DA005108D9005008D8004F08D7006A
:1012C0006F3003178D0000308F00031005300313BB
:1012D000DD008A115D228A15893084005208E00001
:1012E0005108DF005008DE004F08DD000230E10049
:1012F0008A1178238A152030EA008A1139228A154A
:10130000743003178D0000308F0003100530031375
:10131000DD008A115D228A153E08DD001830DE00EE
:101320008A11252E8A150A30EA008A1139228A1577
:101330000830DD00FA30DE008A117E2E8A15DD0BC2
:061340009A294A2863000F
:02400E00323F3F
:00000001FF
;PIC16F877A
;CRC=0099  CREATED="17-jun-19 10:00"
