:1000000000308A0018280000233084008313000881
:10001000031917280630F800F701F70B0D28F80B25
:100020000C287B30F700F70B1328800B0A280800F8
:1000300003081F398300813083169900A630980089
:1000400090308312980083161F149F141F159F1160
:1000500007309C00831306148312061C3A28613073
:100060000C1E302899000230A2009630A300042014
:10007000A20B35288C1E4C288C1E3C281A08A10087
:100080002108613C031D4C28831686100230831220
:0E00900086060A30A300042083162B28630086
:02400E00323F3F
:00000001FF
;PIC16F877A
;CRC=662C  CREATED="22-mar-19 11:20"
