:1000000003308A001C2B0000FF00030E8301A100B7
:100010000A08A0008A010408A2007708A300780853
:10002000A4007908A5007A08A60003170D08031399
:10003000A70003170F080313A80003170C080313E6
:10004000A90003170E080313AA00831383120B1EC3
:100050002B288B1852288C308400801E31288C1A53
:100060005528220884002308F7002408F8002508F2
:10007000F9002608FA00270803178D000313280843
:1000800003178F000313290803178C0003132A0892
:1000900003178E00031320088A00210E8300FF0E31
:1000A0007F0E09008A110A126C288A110A12A929E6
:1000B0004E3084008313000803196B280630F800C3
:1000C000F701F70B6128F80B60287B30F700F70B7E
:1000D0006728800B5E2808003208B4003308B5009A
:1000E00034080C1E7128990035080C1E75289900DB
:1000F0006430CE0058208B108A110A1231288316E2
:100100008815081688160817831288148316881015
:100110000000831208158316081100008312D6010F
:10012000831688150030831288190130D60483168F
:10013000081600308312081A0130F7000310F70D7B
:100140007708D6048316881600308312881A013087
:10015000F700F70DF70DFC30F7057708D604831686
:10016000081700308312081B0130F700F70DF70D58
:10017000F70DF830F7057708D6045608F800780828
:10018000D500081183160811000083120815831684
:100190000811CA28CB2800008312D60183168815BF
:1001A0000030831288190130D604831608160030F7
:1001B0008312081A0130F7000310F70D7708D604F0
:1001C0008316881600308312881A0130F700F70D65
:1001D000F70DFC30F7057708D604831608170030B2
:1001E0008312081B0130F700F70DF70DF70DF830FB
:1001F000F7057708D6045608F8007808D4000811E7
:100200008316081188110812881208138312550EDC
:10021000F700F030F70577085404F8000800551887
:100220001329881114298815831688118312D5186B
:100230001B2908121C290816831608128312551947
:100240002329881224298816831688128312D51927
:100250002B2908132C290817831608130000831272
:100260000815831608110330F700F70B35298312A0
:10027000081183160811831208008316081108104C
:100280008810831208108316081083127F207808C4
:10029000D400D41B4629D208031D50290810512927
:1002A0000814831608100000831288108316881023
:1002B000000083120811831608118312530ED40014
:1002C0000F30D4055408D5000F2153080F39D4003E
:1002D000D5000F2108004F0B6E2971294030D00046
:1002E0007229D00101304E02D00750088038D10069
:1002F000D2015108D3003D2108004D08073A0319E7
:100300008B290B3A03199029063A03199829023AC6
:1003100003199E29A3290130CE00CF006B21A82903
:10032000D2010130D3003D210230CE005820A8294F
:100330000130CE000230CF006B21A829D20110304D
:10034000D3003D21A8290130D2004D08D3003D2122
:1003500008008C1EA9291A08B6008C1EAD291A089F
:10036000B7003708AF003608AE002E08D03C031D9A
:10037000C3292F08073C031DC32983168813803027
:1003800083128806A52A0630C4000130C50044083F
:10039000CE004508CF006B217F207808C700C71B1F
:1003A000CC2908148316081083127F207808C60011
:1003B00008108316081083124608F800A9300317A6
:1003C0008D0002308F0003100D300313C4000B08A2
:1003D000C5008B13831603178C170C140000000044
:1003E00083120313C51B8B1703181E2A03170C084F
:1003F0007F390313C50003170D080313C600031745
:100400000F080313C7004508CD007D2146080317D8
:100410008D000313470803178F0003130B08C80050
:100420008B13831603178C170C1400000000831223
:100430000313C81B8B17C40B1E2A3D2A03170C0D70
:100440000E0D7F390313C50003170D080313C600F3
:1004500003170F080313C7004508CD007D21460888
:1004600003178D000313470803178F008D0A031924
:100470008F0A03100313C40BE729103084002F08E0
:10048000C5002E08C400CC010408CB004C10831B0F
:100490004C14450EF038C700C707E23EC800323E94
:1004A000CA0045080F39C807C807CA07E93EC9008E
:1004B000C907C907440E0F39C907CA07C90DCA0DB4
:1004C000CA09CA0D44080F39CA07C70D0730C6004C
:1004D0000A30CA07C903031C692AC907C803031CD9
:1004E0006D2AC807C703031C712AC707C603031C6C
:1004F000752A46308400831307304B054B1384075D
:100500004A30040203194B170008F700031D902A14
:100510004B1B902A4B1AA22ACB19902A2030932ADF
:10052000CB154B123030F707C5010408C400451045
:10053000831B45147708CD007D2144088400831374
:1005400045188317840A4B1F802A8C128A110A12BD
:1005500031288C24C6265405D630EC37721DA012E3
:10056000EC3A00002830B9000C30BA000130BB0072
:100570000630BC0008118316081183120810831678
:1005800008108312881083168810881108128812A8
:1005900008130811081088108312AB018B1BAB17CE
:1005A0008B130F30CE005820AB1B8B170130B800D7
:1005B0003808033C031CF02AAB018B1BAB178B13D1
:1005C0000330D5000F21AB1B8B17AB018B1BAB1777
:1005D0008B130530CE005820AB1B8B17B80AD82AD6
:1005E000AB018B1BAB178B130230D5000F21AB1B5C
:1005F0008B17AB018B1BAB178B130530CE0058202C
:10060000AB1B8B17B8013808033C031C192B39307E
:100610003807840083130008BD00AB018B1BAB17A8
:100620008B13D2013D08D3003D21AB1B8B17B80AB9
:10063000032B8A110A12502B03081F3983008130C3
:1006400083169900A6309800903083129800B1016B
:10065000B0010730B300D030B20083161F149F14CE
:100660001F159F1107309C0083131F1383121F1740
:100670009F1783169F1783121F1483161F109F1432
:100680001F159F151030F700F70B442B00000117C2
:1006900083120B1683168C16C03083128B04B22A79
:1006A0001F151F19512B83161E088312AC001E083C
:1006B000AD0030082C02031D612B31082D020319F7
:1006C000712B2C08B4002D08B50034080C1E662BC5
:1006D000990035080C1E6A2B99002D08B1002C08D2
:1006E000B000AB018B1BAB178B136430CE005820CE
:0806F000AB1B8B17502B6300BC
:02400E00323F3F
:00000001FF
;PIC16F877A
;CRC=4B8F  CREATED="27-mar-19 10:49"
