:1000000003308A001B2B00008C24EC3AED34EE30D8
:10001000E3306F103D10A012EC3A2000363084001F
:1000200083130008031921280630F800F701F70BA5
:100030001728F80B16287B30F700F70B1D28800BCC
:10004000142808003D1826288811272888158316AB
:1000500088118312BD182E2808122F28081683161F
:10006000081283123D1936288812372888168316FD
:1000700088128312BD193E2808133F2808178316DB
:100080000813000083120815831608110330F700C7
:10009000F70B4828831208118316081183120800F1
:1000A000BE01831688150030831288190130BE0402
:1000B0008316081600308312081A0130F700031067
:1000C000F70D7708BE048316881600308312881A4D
:1000D0000130F700F70DF70DFC30F7057708BE0487
:1000E0008316081700308312081B0130F700F70D44
:1000F000F70DF70DF830F7057708BE043E08F80055
:10010000080083160811081088108312081083163F
:100110000810881508168816081783128814831685
:10012000881000008312081583160811000083123E
:1001300050207808BD0008118316081100008312B2
:10014000081583160811A428A52800008312502042
:100150007808BC000811831608118811081288124B
:10016000081383123D0EF700F030F70577083C04C2
:10017000F8007808BC00BC1FBF2883168928BA087D
:10018000031DC4280810C528081483160810000091
:1001900083128810831688100000831208118316BA
:1001A000081183123B0EBC000F30BC053C08BD009B
:1001B00022203B080F39BC00BD0022200800283057
:1001C000AA000C30AB000130AC000630AD000811C5
:1001D00083160811831208108316081083128810E2
:1001E0008316881088110812881208130811081045
:1001F00088100F308312B6000E200130A9002908A4
:10020000033C031C0B290330BD0022200530B6003F
:100210000E20A90AFF280230BD0022200530B600BA
:100220000E20A9012908033C031C22292A30290792
:10023000840083130008AE00BA012E08BB008120A1
:10024000A90A12298A110A12352B8E30F7002A08C2
:10025000F8002908F900FA01F808031D392979087E
:10026000F800F9010830F702F808031D3929F701F1
:1002700041290310F81B4029F90DF80DF70339291E
:10028000F8138A110A12412B29080319B429B10065
:100290002D080319B429B107031855297F30B1027D
:1002A000031CB4290319B42959298130B107031853
:1002B000B4293108F700F801F901FA012A08B5005C
:1002C000B5172B08B4002C08B3001830B100B201E8
:1002D000331C82293008FA07031C7429F90A031D0C
:1002E0007429F80A0319B2172F08F907031C7B2990
:1002F000F80A0319B2172E08AB00AB172B08F80742
:100300000318B217B20DF80CF90CFA0CB50CB40CBA
:10031000B30C0310B10B67290130F7070318B42998
:10032000F81B9929B50DFA0DF90DF80DF70303190E
:10033000B429B51FAA29FA0A031DAA29F90A031D1F
:10034000AA29F80A031DAA29F80CF90CFA0CF70AD5
:100350000319B4292A08B2002E08B206B21FB22926
:10036000F817B829F813B829F701F801F901FA01CB
:100370008A110A125A2B2908B63CA900FA012A0848
:10038000AD00AA170310AA0CAB0CAC0CFA0CF90CBC
:10039000F80CF70CA90BC229AD1FD929F709F809E8
:1003A000F909FA09F70A0319F80A0319F90A0319EE
:1003B000FA0A8A110A12632B370BDF29E22940302F
:1003C000B800E329B80101303602B8073808803890
:1003D000B900BA013908BB00812008003508073A86
:1003E0000319FC290B3A0319012A063A0319092AB1
:1003F000023A03190F2A142A0130B600B700DC2193
:10040000192ABA010130BB0081200230B6000E204B
:10041000192A0130B6000230B700DC21192ABA01CE
:100420001030BB008120192A0130BA003508BB000A
:10043000812008000B08AA008B13831603178C1762
:100440000C140000000083120313AA1B8B1703185F
:10045000512A03170C087F390313AA0003170D084C
:100460000313AB0003170F080313AC002A08B500F1
:10047000EE212B0803178D0003132C0803178F00A0
:1004800003130B08AD008B13831603178C170C1482
:100490000000000083120313AD1B8B17A90B512A18
:1004A000702A03170C0D0E0D7F390313AA000317D2
:1004B0000D080313AB0003170F080313AC002A0841
:1004C000B500EE212B0803178D0003132C0803172A
:1004D0008F008D0A03198F0A03100313A90B1A2A20
:1004E0008A110A12752B8318782A3D3084008313F1
:1004F000F701F801F901FA01BD01BE01BF01C00118
:100500003C083B043A0439040319B62A2030C100E0
:100510000310B50DB60DB70DB80DBD0DBE0DBF0D59
:10052000C00D3C084002031D9F2A3B083F02031DEB
:100530009F2A3A083E02031D9F2A39083D02031CE8
:10054000B02A3908BD023A08031C3A0FBE023B0824
:10055000031C3B0FBF023C08031C3C0FC0020314EA
:10056000F70DF80DF90DFA0DC10B882A3D08800032
:10057000840A3E088000840A3F088000840A4008FC
:10058000800008000408AD003B30B4009A30B3008E
:10059000CA30B200B1010A30AF00831429308400A0
:1005A00083132C08B8002B08B7002A08B6002908C6
:1005B000B5003408BC003308BB003208BA0031086B
:1005C000B90073227808F708031DF92A2F08013AA9
:1005D0000319F92A2D080319FA2A0F392F020319D2
:1005E000F32A0318FF2AAD1BFF2A2D1BFA2A2030FD
:1005F000FB2AAD013030F7077708B500EE218310F4
:100600003408B8003308B7003208B6003108B50026
:10061000BC01BB01BA010A30B90073227A08B400E8
:100620007908B3007808B2007708B100AF0BCD2A83
:100630008A110A12802B03081F398300FF30A000A3
:1006400083161F149F141F159F1107309C008313DE
:100650001F109F141F159F151F1783121F139F171D
:1006600083169F1783121F14DF281F151F19362B9F
:100670001E08FA0083161E088312A9001E08AA008D
:1006800025297A08A4007908A3007808A200770831
:10069000A1002408AC002308AB002208AA0021080E
:1006A000A900B130B000E530AF002130AE007830A5
:1006B000AD0044297A08AC007908AB007808AA009C
:1006C0007708A900BB297A08A8007908A70078084C
:1006D000A6007708A500043003178D0000308F00B6
:1006E00003100F300313A9001A2A41308400280890
:1006F000AC002708AB002608AA002508A900C22ADA
:100700002030B500EE210230A9009630B6000E2050
:10071000A90B852B2508F7002608FA007A08031D87
:10072000942BF7080319DB2B7A08031D9B2B013050
:1007300077020319E62B7A08031DA22B02307702F9
:100740000319F22B7A08031DA92B03307702031932
:10075000FE2B7A08031DB02B0430770203190A2CF4
:100760007A08031DB72B053077020319162C7A0877
:10077000031DBE2B063077020319222C7A08031DB5
:10078000C52B0730770203192E2C7A08031DCC2BBA
:100790000830770203193A2C7A08031DD32B09304D
:1007A00077020319462C7A08031DDA2B0A307702E8
:1007B0000319532C602C0030A0008316870183128C
:1007C00087018316880183128801602C0030A00005
:1007D00083168701013083128700831688018312F4
:1007E0008801602C0030A00083168701033083123B
:1007F00087008316880183128801602C0030A000D6
:1008000083168701073083128700831688018312BD
:100810008801602C0030A000831687010F308312FE
:1008200087008316880183128801602C0030A000A5
:10083000831687011F308312870083168801831275
:100840008801602C0030A000831687013F3083129E
:1008500087008316880183128801602C0030A00075
:10086000831687017F3083128700831688018312E5
:100870008801602C0030A00083168701FF308312AE
:1008800087008316880183128801602C0030A00045
:1008900083168701FF308312870083168801013099
:1008A00083128800602C0030A00083168701FF307F
:1008B0008312870083168801033083128800602C1E
:0408C000352B630071
:02400E00723FFF
:00000001FF
;PIC16F877A
;CRC=8352  CREATED="22-mar-19 17:45"
