:1000000000308A003E280000FF00030E8301A1009B
:100010000A08A0008A010408A2007708A300780853
:10002000A4007908A5007A08A600831383120B1E8A
:100030001B288B182C28220884002308F70024088A
:10004000F8002508F9002608FA0020088A00210E89
:100050008300FF0E7F0E09008A110A122F28A70ABB
:1000600027080A3C031D3A288316861002308312A3
:100070008606A7018B108A110A121B2803081F3954
:100080008300A70183161F149F141F159F110730AB
:100090009C00831383120B16C0308B0483168610CA
:0800A000831286105228630050
:02400E00323F3F
:00000001FF
;PIC16F877A
;CRC=D5B1  CREATED="13-Jun-19 17:41"
