:1000000000308A005D280000AB010408AA002B1014
:10001000831B2B14240EF038A600A607E23EA7008F
:10002000323EA90024080F39A707A707A907E93E10
:10003000A800A807A807230E0F39A807A907A80D2D
:10004000A90DA909A90D23080F39A907A60D073085
:10005000A5000A30A907A803031C2A28A807A7039C
:10006000031C2E28A707A603031C3228A607A503F6
:10007000031C362825308400831307302A052A13F1
:1000800084072930040203192A170008F700031D0A
:1000900051282A1B51282A1A5928AA1951282030D8
:1000A0005428AA152A123030F70777080C1E562854
:1000B0009900840A2A1F4128080003081F39830079
:1000C000813083169900A2309800903083129800F6
:1000D00083161F149F141F159F1107309C00831354
:1000E0001F109F101F159F111F1383121F179F179B
:1000F00083169F1783121F14FE308316860000306C
:10010000F80083121F08C73978049F00A630F70053
:10011000F70B882800001F151F198C281E08FA00ED
:1001200083161E088312A1001E08A200103084004E
:100130001E08A4002108A300042020300C1E9E28C5
:1001400099000830F8001F08C73978049F00A630CE
:10015000F700F70BA92800001F151F19AD281E086E
:10016000FA0083161E088312A1001E08A200103098
:1001700084001E08A4002108A30004200A300C1EDD
:10018000BF2899000D300C1EC328990083168601E4
:10019000203083128600A630F700F70BCD28000030
:0E01A000831686018312860183167F28630072
:02400E00323F3F
:00000001FF
;PIC16F877A
;CRC=FEE0  CREATED="16-mai-19 17:17"
