:1000000002308A00DD2A0000FF00030E8301A100F8
:100010000A08A0008A010408A2007708A300780853
:10002000A4007908A5007A08A60003170D08031399
:10003000A70003170F080313A80003170C080313E6
:10004000A90003170E080313AA00831383128C3030
:100050008400801E2D288C1A54288C308400801C2B
:1000600033288C185728220884002308F700240816
:10007000F8002508F9002608FA00270803178D0064
:100080000313280803178F000313290803178C0094
:1000900003132A0803178E00031320088A00210E79
:1000A0008300FF0E7F0E09008A110A12212A8A118D
:1000B0000A12D92AC101BF010A30C000BE013C08A2
:1000C0003D04031D66280030F80057294108C10A85
:1000D0003C07840083133D1883170008C2004208C0
:1000E0002D3C031D7F280130BF004108C10A3C0799
:1000F000840083133D1883170008C2008C2842082F
:100100002B3C031D8C284108C10A3C078400831343
:100110003D1883170008C20042082F3C03184D29E0
:100120004208393C031C4D294208303C031DB828C5
:1001300041083C07840083133D1883170008783C6E
:100140000319AC2841083C07840083133D1883172A
:100150000008583C031DB8281030C000C10A4108EF
:10016000C10A3C07840083133D1883170008C200AE
:1001700040080A3C031DFB2842082F3C0318FA28BC
:100180004208393C031CFA280A30C3003E08C40068
:10019000F701F801430803104418F707F70CF80CAF
:1001A000C418F707F70CF80C4419F707F70CF80C0C
:1001B000C419F707F70CF80C441AF707F70CF80CFA
:1001C000C41AF707F70CF80C441BF707F70CF80CE8
:1001D000C41BF707F70CF80C303042027807BE005A
:1001E0004108C10A3C07840083133D1883170008A7
:1001F000C200BC284D294008103C031D4D2942086F
:10020000603C03180A2942087A3C031C0A29420868
:10021000DF390B294208C20042082F3C0318142979
:100220004208393C03181C294208403C03184D2958
:100230004208463C031C4D2942082F3C03182D2937
:100240004208393C031C2D293E0EC300F030C30583
:10025000303042024307BE0036293E0EC300F03064
:10026000C305413042020A3E4307BE004108C10AAD
:100270003C07840083133D1883170008C20042081E
:10028000603C03184A2942087A3C031C4A29420868
:10029000DF394B294208C2000C293F0B5529400881
:1002A0000A3C031D5529BE09BE0A3E08F800080095
:1002B0000B08BD008B13831603178C170C1400005A
:1002C000000083120313BD1B8B170318902903171B
:1002D0000C087F390313BD0003170D080313BE007C
:1002E00003170F080313BF003D080C1E7529990062
:1002F0003E0803178D0003133F0803178F000313F5
:100300000B08C0008B13831603178C170C14000006
:10031000000083120313C01B8B17BC0B9029B0295C
:1003200003170C0D0E0D7F390313BD0003170D08C5
:100330000313BE0003170F080313BF003D080C1E74
:100340009F2999003E0803178D0003133F080317E8
:100350008F008D0A03198F0A03100313BC0B582951
:1003600008004308F80142020318B9294208F700BF
:10037000C529F7010830C400C20DF70D4308770204
:100380000318F700F80DC40BBC29080020303D1EEF
:100390003030BE003C08F700BC1FD629F709F70A29
:1003A0007708BC002D30BE00BD173D143C08C200CC
:1003B0006430C300B1217708BC0030307807BF003B
:1003C0003C08C2000A30C300B12130307707C100B9
:1003D00030307807C0003E08F70030303F02031984
:1003E000F529BD14BD1B3D15092A3E08BF0020306C
:1003F000BE00303040020319012A3D14BD1BBD145C
:10040000092A031D3D14031D092A3F08C00020309E
:10041000BF003D19102ABD18142A3D18182A1C2A9D
:100420003E080C1E112A99003F080C1E152A99003F
:1004300040080C1E192A990041080C1E1D2A99001B
:100440000800BA013A08033C031C5D2A8C1E262AC8
:100450001A08B50035082E3C0319382A3508293CFE
:100460000319382A34303A07840083133508800092
:1004700035082E3C031D4F2AB608031D472ABD012F
:100480003430BC005A207808B100B60A4E2ABD01AB
:100490003430BC005A207808B200B60A5D2A35080C
:1004A000293C031D5B2ABD013430BC005A2078086A
:1004B000B300B6015D2ABA0A222ACC3003178D0098
:1004C00002308F00031005300313BC005821343074
:1004D0008400831380080319802ABD010408BC002E
:1004E0003D10831B3D1400080C1E742A99003C0823
:1004F000840083133D188317840A0319850A6A2A26
:1005000052300C1E812A99003A300C1E852A99001F
:1005100020300C1E892A99003108BC001830BD001B
:10052000C621D23003178D0002308F00031404302F
:100530000313BC0058213208BC001830BD00C6218E
:1005400020300C1EA12A990042300C1EA52A9900C9
:100550003A300C1EA92A99003308BC001830BD009F
:10056000C62120300C1EB22A9900BB013B08033C77
:10057000031CC82A34303B07F800FA010318FA0AB2
:100580007808840083137A1883178001BB0AB62A7F
:100590008C128A110A123328E337721DA0127300DD
:1005A000521DA0126910471DA0126910421DA534EA
:1005B00020008C108A110A12332803081F39830087
:1005C000813083169900A6309800903083129800ED
:1005D000B601B701B901B80183161F149F141F1586
:1005E0009F1107309C0083138312AB01AC01B4014F
:1005F0000030F80006389200FF30831692008C1607
:0C0600008C14C03083128B04042B6300A8
:02400E00323F3F
:00000001FF
;PIC16F877A
;CRC=80D8  CREATED="25-mai-19 07:09"
