:1000000000308A001A28000023308400831300087F
:10001000031917280630F800F701F70B0D28F80B25
:100020000C287B30F700F70B1328800B0A288A1165
:100030000A126C2803081F398300FF30A2008316C0
:100040001F149F141F159F1107309C0083131F104E
:100050009F141F159F151F1383121F179F178316B9
:100060009F1783121F140030F80006389200FF30EB
:1000700083169200831222112208831687008312AE
:1000800007110C309700FF3095001708CF39103852
:1000900097001F151F194A2883161E088312A000F7
:1000A0001E08A1005330F700F70B54282108F9006F
:1000B0002008F800F90CF80CF90CF80CF90C780889
:1000C0009500F90C790C3039F7001708CF3977040F
:0C00D00097006430A30004284928630056
:02400E00723FFF
:00000001FF
;PIC16F877A
;CRC=62DB  CREATED="21-mar-19 13:56"
