:1000000000308A0075280000AA010408A9002A10FF
:10001000831B2A14230EF038A500A507E23EA60094
:10002000323EA80023080F39A607A607A807E93E15
:10003000A700A707A707220E0F39A707A807A70D34
:10004000A80DA809A80D22080F39A807A50D07308B
:10005000A4000A30A807A703031C2A28A707A603A1
:10006000031C2E28A607A503031C3228A507A403FA
:10007000031C3628243084008313073029052913F4
:10008000840728300402031929170008F700031D0C
:100090005128291B5128291A5928A91951282030DB
:1000A0005428A91529123030F70777080C1E562856
:1000B0009900840A291F41288A110A12A428223093
:1000C000840083130008031972280630F800F70132
:1000D000F70B6828F80B67287B30F700F70B6E28C2
:1000E000800B65288A110A12AF2803081F39830084
:1000F0000A3083169900A630980090308312980039
:1001000083161F149F141F159F1107309C00831323
:100110001F109F141F159F151F1383121F139F136A
:1001200083169F1783121F141F151F1995288316F6
:100130001E088312A0001E08A100103084002108B0
:10014000A3002008A20004280A300C1EA52899004C
:100150000D300C1EA92899001430A2005F289428A5
:0201600063003A
:02400E00323F3F
:00000001FF
;PIC16F877A
;CRC=4E26  CREATED="07-abr-19 19:28"
