:1000000000308A0018280000223084008313000882
:10001000031917280630F800F701F70B0D28F80B25
:100020000C287B30F700F70B1328800B0A280800F8
:1000300003081F398300FF30A00083161F149F148C
:100040001F159F1107309C0083138501FF30831219
:1000500085000030A00083168701FF3083128700DF
:1000600083168601831286008316051083120514F9
:100070000230A100FA30A2000420A10B3A28831616
:100080000510831205100230A100FA30A2000420EE
:0A009000A10B452883162528630004
:02400E00723FFF
:00000001FF
;PIC16F877A
;CRC=2E1E  CREATED="15-mar-19 10:54"
