:1000000000308A00DD280000FF00030E8301A100FC
:100010000A08A0008A010408A2007708A300780853
:10002000A4007908A5007A08A600831383120B1E8A
:100030001B288B1832288C308400801E21288C1AB3
:100040003528220884002308F7002408F800250832
:10005000F9002608FA0020088A00210E8300FF0E0E
:100060007F0E09008A110A1238288A110A124E28B6
:10007000BA0A3A080A3C03184228BA0183168610C5
:10008000831286103B083A02031D4A288316861005
:10009000831286148B108A110A12212836303007F9
:1000A0008400831331188317E1010408E000611014
:1000B000831B611483160814831208185D28083006
:1000C000F700E201F7177228F713722803100818D7
:1000D0000314E20C771772287713F70B662862086F
:1000E000F8007E28A730F71B2D30F800F80B762893
:1000F0000000F71B6428771B6C28662860088400C2
:1001000083136118831778088000B00A0319B10AB5
:1001100001303002DE003108DF000030031C013006
:10012000DF0236305E07840083135F1883170008F0
:10013000433C031D9D28B101B0018C128A110A12A3
:1001400021282713270883168700831207130830F6
:10015000F800AA280000F817BB28F813DD0C0318D4
:100160000717031C07137817BB287813F80BAE2862
:10017000B92800000717A7308400840BBD28C028C9
:10018000F81BAD28781BB528080080080319DA2869
:10019000DC010408DB005C10831B5C140008DD003C
:1001A000A1205B08840083135C188317840A031959
:1001B000850AC5288A110A122B2903081F398300D2
:1001C000FF30A7002713270883168700831207171D
:1001D000B101B001BA01BB011E30BC00CD30C0007E
:1001E000CC30BF005C30BE008430BD00C401C30110
:1001F0004030C2008130C100C801C7014030C60094
:100200007F30C500CC01CB01CA01C901D001CF01AB
:10021000CE01CD01D401D301D201D101D801D70142
:10022000D601D501DA01D90183161F149F141F15B9
:100230009F1107309C0083138312A801A901B60106
:10024000831601178C1683120B16C0308B043630C0
:1002500084008313C5282030DD00A12027296300F6
:02400E00323F3F
:00000001FF
;PIC16F877A
;CRC=2A63  CREATED="17-jun-19 06:33"
