:1000000008308A000028000078103D10253675164B
:10001000A03CA01EA012EC3A2C107A103D10253600
:1000200075162039653365396537E334E11EA01252
:10003000EC3A8A060000F801F901F701FA014908D3
:10004000031D2528480803193F281030CA00031053
:10005000C60DC70DF70DFA0D49087A02031D3228A7
:1000600048087702031C3B284808F702031CFA03E0
:100070004908FA020314F80DF90DCA0B27280800E5
:100080001030CC00F701FA01C90CC80C031C4E2833
:100090004A08F7070318FA0A4B08FA07FA0CF70C94
:1000A000F90CF80CCC0B442808008E30F7004908F6
:1000B000F8004808F900FA01C91F6328F809F9098E
:1000C000F90A0319F80AF808031D70287908F800DE
:1000D000F9010830F702F808031D7028F7017928A4
:1000E0000310F81B7728F90DF80DF7037028C91FC6
:1000F000F81308006C08F3007008F306F31F852856
:1001000003110310EC1B0314B8286C08F3006F08EC
:10011000F4006B08F40203199328F31FB8280308AE
:10012000013A8300B8287008F4006C08F40203193F
:100130009F28F31FB8280308013A8300B8287108E4
:10014000F4006D08F4020319AB28F31FB828030864
:10015000013A8300B8287208F4006E08F40203190B
:10016000B728F31FB8280308013A8300B828031002
:1001700008006F0803198B298316A4007308031D58
:10018000C32883128B29A402031CCD287F30A40727
:10019000031CCC2883128B29D7288130A402031892
:1001A000D32883128B29031DD72883128B29240877
:1001B000F700F801F901FA01A3017008A200A217E3
:1001C0007108A1007208A0001930A4007608A002EE
:1001D0000318FA280130A1020318FA28A202031812
:1001E000FA28A3020318FA28A30AA20AA10A760889
:1001F000A0072C297508A102031815290130A202B5
:1002000003181529A30203181529A30AA20A7508C1
:10021000A1077608A007031C2C29A10A031D2C297D
:10022000A20A031D2C29A30A2C2974088038A202D3
:1002300003182B290130A30203182B29A30A7408E1
:100240008038A2077508A107031C0929A20A031D0B
:100250000929A30A09297A14A40B2F293A29031082
:10026000A00DA10DA20DA30D0310FA0DF90DF80DAF
:10027000A50DE628251C42290310F80CF90CFA0CF0
:10028000A50C4629F70B462983128B29A51B6F293C
:100290000310A00DA10DA20DA30D7608A002031856
:1002A0005B290130A10203185B29A20203185B2914
:1002B000A302031C80297508A102031866290130D6
:1002C000A20203186629A302031C8029740880383F
:1002D000A20203186F290130A302031C8029FA0A25
:1002E000031D8029F90A031D8029F80A031D8029AE
:1002F000F70A031D7D2983128B29F80CF90CFA0CDF
:100300007008A4007408A406A41F8829F81790296F
:10031000F81390298312F701F801F901FA01831605
:10032000831208006F080319112A8316A0007308AE
:10033000031D9C298312112AA0070318AA297F30C4
:10034000A0020318A5298312112A031DA9298312CB
:10035000112AB0298130A007031CB0298312112A69
:100360002008F700F801F901FA017008A400A417A9
:100370007108A3007208A2001830A000A101221C7D
:10038000D9297608FA07031CCB29F90A031DCB29C2
:10039000F80A0319A1177508F907031CD229F80AEE
:1003A0000319A1177408F100F1177108F807031871
:1003B000A117A10DF80CF90CFA0CA40CA30CA20CBB
:1003C0000310A00BBE290130F707031CE929831293
:1003D000112AF81BF329A40DFA0DF90DF80DF70BEE
:1003E000F3298312112AA41F062AFA0A031D062ADA
:1003F000F90A031D062AF80A031D062AF80CF90C4F
:10040000FA0CF70A031D062A8312112A7008A100AC
:100410007408A106A11F0E2AF817162AF813162A27
:100420008312F701F801F901FA018316831208001B
:1004300080308318F4068316A201A3017008A1007E
:100440007408A10683126F0803190E2B8316A000EF
:10045000F70073080319182BA0020319B22A031C12
:100460006E2A7408A600A6177508A5007608A400D1
:10047000A3010310A60CA50CA40CA30CA00B382AF6
:10048000A11F452A22142E2B221020102216723072
:1004900084008313432B2212A11B582A201C632A99
:1004A000A60CA50CA40CA30CF70A0319292B632A8C
:1004B000A61B662A0310A30DA40DA50DA60DF70318
:1004C0000319292B582A2217D22A22137008A100B7
:1004D000A11F6C2AA617222BA613222B7308A0009B
:1004E000F70083126F088316A0027008A600A617F3
:1004F0007108A5007208A400A3010310A60CA50CA6
:10050000A40CA30CA00B7C2AA11F892AA2142E2BB9
:10051000A2102010A216763084008313432BA2125F
:10052000A11B9C2A201CA72AA60CA50CA40CA30C7A
:10053000F70A0319292BA72AA61BAA2A0310A30D21
:10054000A40DA50DA60DF7030319292B9C2AA217AC
:10055000D22AA2137408A100A11FB02AA617222B29
:10056000A613222B7408A600A6177508A500760806
:10057000A400A11FBF2AA61322152E2B2211A3010E
:100580002010723084008313432BA11BE82A7008CB
:10059000A100201CD22AA60CA50CA40CA30CF70ABF
:1005A0000319292BA31FE32AA40A031DE32AA50A82
:1005B000031DE32AA60A031DE32AA60CA50CA40C1E
:1005C000F70A0319292B221B652AA21BA92A072B2C
:1005D0008030A606A61FF02A2E2B7408A100FD2A43
:1005E0007008A100A608031DFD2AA508031DFD2A09
:1005F000A408031DFD2AF701222BA61B072B0310BD
:10060000A30DA40DA50DA60DF70BFD2A292BA11FE7
:100610000B2BA617222BA613222B83127308F7008D
:1006200074088316A6007508A5007608A400222B7E
:1006300083126F08F70070088316A6007108A500E2
:100640007208A4002608F8002508F9002408FA001A
:10065000612BF701F801F901FA01612BA301A4094B
:10066000A509A609A309A30A031D3C2BA40A031D7F
:100670003C2BA50A0319A60A2218442AA218882A84
:100680002219BE2AED2A0008A407031C4D2BA50A37
:10069000031D4D2BA60A0319201484030008A50787
:1006A000031C552BA60A0319201484030008801F7D
:1006B000803AA60703182014221A4B2AA21A8F2A5E
:1006C000C52A831208006A10EA105D08E1005C0880
:1006D000E0005B08DF005A08DE005D08EE005C0801
:1006E000ED005B08EC005A08EB00F201F101F001AB
:1006F000EF017A20031C802B6A145F08803ADF0028
:10070000EE01ED01EC017F30EB006108F2006008C2
:10071000F1005F08F0005E08EF007A20031CA72BB1
:10072000F201F101F0017F30EF006108F60060088E
:10073000F5005F08F4005E08F300B9207A08E100D4
:100740007908E0007808DF007708DE00EA140A3054
:10075000F2008930F1003430F0007C30EF006108A5
:10076000F6006008F5005F08F4005E08F3009221CF
:100770007A08EE007908ED007808EC007708EB00C5
:100780007A08F2007908F1007808F0007708EF00A5
:100790006108F6006008F5005F08F4005E08F300E9
:1007A00092217A08EE007908ED007808EC007708CD
:1007B000EB0083107A08F2007908F1007808F00065
:1007C0007708EF007C30F6007930F5003530F40022
:1007D0008130F30018227A08E5007908E4007808EF
:1007E000E3007708E2006508F2006408F10063089E
:1007F000F0006208EF006108F6006008F5005F088D
:10080000F4005E08F30092217A08EE007908ED000A
:100810007808EC007708EB007A08F2007908F1001C
:100820007808F0007708EF006108F6006008F5002E
:100830005F08F4005E08F30092217A08EE00790860
:10084000ED007808EC007708EB0083107A08F200DE
:100850007908F1007808F0007708EF003F30F600E3
:100860000230F5003330F4008330F30018227A08A8
:10087000E5007908E4007808E3007708E2006508FD
:10088000F2006408F1006308F0006208EF006108FC
:10089000F6006008F5005F08F4005E08F30092219E
:1008A0007A08EE007908ED007808EC007708EB0094
:1008B0007A08F2007908F1007808F0007708EF0074
:1008C0006108F6006008F5005F08F4005E08F300B8
:1008D00092217A08EE007908ED007808EC0077089C
:1008E000EB0083107A08F2007908F1007808F00034
:1008F0007708EF003330F6008C30F5001E30F4003E
:100900008330F30018227A08E5007908E4007808BB
:10091000E3007708E200F201F101F0017F30EF001F
:100920006108F6006008F5005F08F4005E08F30057
:1009300092217A08EE007908ED007808EC0077083B
:10094000EB007A08F2007908F1007808F0007708E7
:10095000EF006108F6006008F5005F08F4005E082B
:10096000F30092217A08EE007908ED007808EC0097
:100970007708EB0083107A08F2007908F100780814
:10098000F0007708EF001B30F600E430F50035305A
:10099000F4008230F30018227A08E9007908E800B0
:1009A0007808E7007708E6006908F2006808F100B7
:1009B0006708F0006608EF006108F6006008F500BF
:1009C0005F08F4005E08F30092217A08EE007908CF
:1009D000ED007808EC007708EB007A08F20079085F
:1009E000F1007808F0007708EF006108F600600871
:1009F000F5005F08F4005E08F30092217A08EE002B
:100A00007908ED007808EC007708EB0083107A088D
:100A1000F2007908F1007808F0007708EF00A430C0
:100A2000F600DB30F5006730F4008330F300182265
:100A30007A08E9007908E8007808E7007708E60016
:100A40006908F2006808F1006708F0006608EF0026
:100A50006108F6006008F5005F08F4005E08F30026
:100A600092217A08EE007908ED007808EC0077080A
:100A7000EB007A08F2007908F1007808F0007708B6
:100A8000EF006108F6006008F5005F08F4005E08FA
:100A9000F30092217A08EE007908ED007808EC0066
:100AA0007708EB0083107A08F2007908F1007808E3
:100AB000F0007708EF003330F6008C30F5001E3080
:100AC000F4008330F30018227A08E9007908E8007E
:100AD0007808E7007708E6006108F2006008F10096
:100AE0005F08F0005E08EF006508F6006408F50096
:100AF0006308F4006208F30092217A08EE00790896
:100B0000ED007808EC007708EB007A08F20079082D
:100B1000F1007808F0007708EF006908F60068082F
:100B2000F5006708F4006608F300B9207A08E500CC
:100B30007908E4007808E3007708E200EA1CBA2D9F
:100B40008314DB30F2000F30F1004930F0007F30C9
:100B5000EF006508F6006408F5006308F400620819
:100B6000F30018227A08E5007908E4007808E30029
:100B70007708E2006A1CBF2D6308803AE300620830
:100B8000F7006308F8006408F9006508FA00080037
:100B90005810D9014F08EE004E08ED004D08EC004A
:100BA0004C08EB00F201F101F001EF017A2003188B
:100BB000DB2D031DF02D5308EE005208ED00510807
:100BC000EC005008EB00F201F101F001EF017A2096
:100BD0000318EC2D031DEE2D0330EF2D0430022EF3
:100BE0005308EE005208ED005108EC005008EB00ED
:100BF000F201F101F001EF017A20031C012E023015
:100C0000022E0130D9004F08EE004E08ED004D08CD
:100C1000EC004C08EB00F201F101F001EF017A2049
:100C2000031C162E58144D08803ACD005308EE00D0
:100C30005208ED005108EC005008EB00F201F10100
:100C4000F001EF017A20031C282E5108803AD100D0
:100C50005308EE005208ED005108EC005008EB007C
:100C6000F201F101F001EF017A20031D5C2E4F0823
:100C7000EE004E08ED004D08EC004C08EB00F201D0
:100C8000F101F001EF017A2003195B2E581C522E5E
:100C90007F30F700C930F8000F30F900DB30FA0080
:100CA000EB2E5B2E7F30F7004930F8000F30F90053
:100CB000DB30FA00EB2EEB2E4F08F2004E08F1006D
:100CC0004D08F0004C08EF005308F6005208F500FC
:100CD0005108F4005008F300B9207A08D7007908C9
:100CE000D6007808D5007708D40001305902FC3EC0
:100CF0000318EB2E043EEC2E5708DD005608DC00EE
:100D00005508DB005408DA006323EB2EEB2E57085E
:100D1000DD005608DC005508DB005408DA006323C8
:100D2000DB010408DA005B10831B5B148314DB30E7
:100D3000F2000F30F1004930F0008030EF007A0807
:100D4000F6007908F5007808F4007708F300182217
:100D50005A08840083135B188317EB2EEB2E570879
:100D6000DD005608DC005508DB005408DA00632378
:100D70007A08DD007908DC007808DB007708DA0003
:100D8000DF010408DE005F10831B5F1483145D081D
:100D9000F2005C08F1005B08F0005A08EF00DB305D
:100DA000F6000F30F5004930F4008030F3001822CF
:100DB0005E08840083135F188317EB2EEB2E570811
:100DC000DD005608DC005508DB005408DA00632318
:100DD0008030F806EB2E08000A108A140A158207E4
:100DE0007C2E872EAF2EDF2E8E30F7004B08F800BA
:100DF0004A08F900FA01F808031D082F7908F800DD
:100E0000F9010830F702F808031D082FF701102F29
:100E10000310F81B0F2FF90DF80DF703082FF81327
:100E200008008E30F7004A08F7024B08F9004C081A
:100E3000F800F917F7080319282F0310F908031D04
:100E4000242FF8080319282FF90CF80CF70B1D2F85
:100E5000CB1F2F2FF809F909F80A0319F90A08001E
:100E60000B08C5008B13831603178C170C14000096
:100E7000000083120313C51B8B170318682F031779
:100E80000C087F390313C50003170D080313C600B0
:100E900003170F080313C70045080C1E4D2F9900B8
:100EA000460803178D000313470803178F00031329
:100EB0000B08C8008B13831603178C170C14000043
:100EC000000083120313C81B8B17C40B682F882FD5
:100ED00003170C0D0E0D7F390313C50003170D0802
:100EE0000313C60003170F080313C70045080C1EA1
:100EF000772F9900460803178D000313470803173F
:100F00008F008D0A03198F0A03100313C40B302FAF
:100F10000800CC010408CB004C10831B4C14450E78
:100F2000F038C700C707E23EC800323ECA00450895
:100F30000F39C807C807CA07E93EC900C907C9076A
:100F4000440E0F39C907CA07C90DCA0DCA09CA0D0F
:100F500044080F39CA07C70D0730C6000A30CA0750
:100F6000C903031CAF2FC907C803031CB32FC8074D
:100F7000C703031CB72FC707C603031CBB2F46308C
:100F80008400831307304B054B1384074A30040257
:100F900003194B170008F700031DD62F4B1BD62F44
:100FA0004B1ADE2FCB19D62F2030D92FCB154B1251
:100FB0003030F70777080C1EDB2F9900840A4B1F8F
:100FC000C62F080045308400831300080319F52F4D
:100FD0000630F800F701F70BEB2FF80BEA2F7B3008
:100FE000F700F70BF12F800BE82F8A150A12DF2B81
:1010000003081F398300813083169900A6309800A9
:101010009030831298000A30A0000130A2001530F1
:10102000A1000130A4000F30A3000130A60015304C
:10103000A5000130A800AC30A7000130AA00BA30EA
:10104000A9000130AC00AB30AB000130AE0068301D
:10105000AD00B001AF01B201B101B401B301B601FD
:10106000B501B801B701BA01B901BC01BB01BE01AC
:10107000BD01C001BF01C2013930C10083161F1478
:101080009F141F159F1107309C0083131F109F1082
:101090001F159F111F1383121F179F1783169F176A
:1010A00083121F14C301200843020318982800303C
:1010B000F8001F08C73978049F002130F700F70BAC
:1010C0005F281F151F19622883161E088312AF0799
:1010D0001E0803181E0FB0070830F8001F08C73994
:1010E00078049F002130F700F70B74281F151F1993
:1010F000772883161E088312B1071E0803181E0FD7
:10110000B2071830F8001F08C73978049F00213053
:10111000F700F70B89281F151F198C2883161E0846
:101120008312B3071E0803181E0FB407C30A5328FF
:101130003008C7002F08C600C9012008C8008A115E
:101140001B208A157908B0007808AF003208C70064
:101150003108C600C9012008C8008A111B208A1561
:101160007908B2007808B1003408C7003308C60017
:10117000C9012008C8008A111B208A157908B4000B
:101180007808B30021082702F7002808FA0022088F
:10119000031C220FFA027708C4007A08C500C701B1
:1011A000B430C6004508C9004408C8008A111B2095
:1011B0008A157908C5007808C40021082F02F700B5
:1011C0003008FA002208031C220FFA027708C60032
:1011D0007A08C7004508C9004408C8004708CB0082
:1011E0004608CA008A1140208A157908C500780887
:1011F000C4005A304402F7004508FA000030031CCE
:101200000130FA027708B5007A08B60023082902EF
:10121000F7002A08FA002408031C240FFA027708B2
:10122000C4007A08C500C701B430C6004508C9002B
:101230004408C8008A111B208A157908C50078085F
:10124000C40023083102F7003208FA002408031C06
:10125000240FFA027708C6007A08C7004508C900BB
:101260004408C8004708CB004608CA008A1140203D
:101270008A157908C5007808C4005A304402F7007E
:101280004508FA000030031C0130FA027708B70065
:101290007A08B80025082B02F7002C08FA00260867
:1012A000031C260FFA027708C4007A08C500C7019C
:1012B000B430C6004508C9004408C8008A111B2084
:1012C0008A157908C5007808C40025083302F7009C
:1012D0003408FA002608031C260FFA027708C60015
:1012E0007A08C7004508C9004408C8004708CB0071
:1012F0004608CA008A1140208A157908C500780876
:10130000C4005A304402F7004508FA000030031CBC
:101310000130FA027708B9007A08BA003708003CB1
:10132000F700FA013808031C380FFA027708C800E2
:101330007A08C9008A1155208A157A08C7007908E9
:10134000C6007808C5007708C4003908003CF700DB
:10135000FA013A08031C3A0FFA027708C8007A0823
:10136000C9008A1155208A157A08CB007908CA006D
:101370007808C9007708C8004708CF004608CE00A3
:101380004508CD004408CC004B08D3004A08D200E1
:101390004908D1004808D0008A11C8258A157A0862
:1013A000C7007908C6007808C5007708C400C901DD
:1013B0000408C8004910831B491483104708F20031
:1013C0004608F1004508F0004408EF00DB30F60065
:1013D0000F30F5004930F4008030F3008A111822F4
:1013E0008A15480884008313491883177A08C700B0
:1013F0007908C6007808C5007708C4004208CB0009
:101400004108CA008A11F4268A154708F2004608E6
:10141000F1004508F0004408EF007A08F60079086A
:10142000F5007808F4007708F3008A1192218A15F4
:101430007A08CD007908CC007808CB007708CA007C
:101440008A1111278A157908BC007808BB00350875
:10145000003CF700FA013608031C360FFA02770841
:10146000C8007A08C9008A1155208A157A08C70071
:101470007908C6007808C5007708C4003908003C20
:10148000F700FA013A08031C3A0FFA027708C8007D
:101490007A08C9008A1155208A157A08CB00790884
:1014A000CA007808C9007708C8004708CF00460876
:1014B000CE004508CD004408CC004B08D3004A08B4
:1014C000D2004908D1004808D0008A11C8258A15E1
:1014D0007A08C7007908C6007808C5007708C400F4
:1014E000C9010408C8004910831B49148310470828
:1014F000F2004608F1004508F0004408EF00DB3038
:10150000F6000F30F5004930F4008030F3008A1106
:1015100018228A15480884008313491883177A080B
:10152000C7007908C6007808C5007708C4004208DB
:10153000CB004108CA008A11F4268A154708F20038
:101540004608F1004508F0004408EF007A08F6006C
:101550007908F5007808F4007708F3008A119221E1
:101560008A157A08CD007908CC007808CB00770876
:10157000CA008A1111278A157908BE007808BD00B3
:101580003708003CF700FA013808031C380FFA024C
:101590007708C8007A08C9008A1155208A157A0888
:1015A000C7007908C6007808C5007708C400350868
:1015B000003CF700FA013608031C360FFA027708E0
:1015C000C8007A08C9008A1155208A157A08CB000C
:1015D0007908CA007808C9007708C8004708CF0012
:1015E0004608CE004508CD004408CC004B08D30087
:1015F0004A08D2004908D1004808D0008A11C825FD
:101600008A157A08C7007908C6007808C5007708E7
:10161000C400C9010408C8004910831B4914831081
:101620004708F2004608F1004508F0004408EF00C2
:10163000DB30F6000F30F5004930F4008030F30065
:101640008A1118228A1548088400831349188317C1
:101650007A08C7007908C6007808C5007708C40072
:101660004208CB004108CA008A11F4268A154708AF
:10167000F2004608F1004508F0004408EF007A083F
:10168000F6007908F5007808F4007708F3008A116D
:1016900092218A157A08CD007908CC007808CB0011
:1016A0007708CA008A1111278A157908C0007808BE
:1016B000BF00043003178D0000308F00031004308A
:1016C0000313C4008A1130278A15103084003008B3
:1016D000C5002F08C4008A1189278A15073003170F
:1016E0008D0000308F00031406300313C4008A11EC
:1016F00030278A15103084003208C5003108C40034
:101700008A1189278A150C3003178D0000308F004D
:10171000031006300313C4008A1130278A151030D5
:1017200084003408C5003308C4008A1189278A154B
:10173000103003178D0000308F0003140E30031398
:10174000C4008A1130278A15103084002E08C50085
:101750002D08C4008A1189278A150A300C1EAE2B69
:1017600099000D300C1EB22B990083168616831239
:10177000861EBF2B3C08AE003B08AD00D92B0630BF
:101780002D07F8002E08FA000318FA0A7A083C021E
:10179000031CD52B031DD02B3B0878020318D52B37
:1017A0008316061283120616D92B8316061283128D
:1017B00006120430C400C830C5008A11E22F8A1511
:0817C000C40BDB2B522863006F
:02400E00323F3F
:00000001FF
;PIC16F877A
;CRC=F7D0  CREATED="08-mai-19 14:13"
