:1000000001308A000829000078103D102536751649
:10001000A03CA01EA012EC3A2C107A103D10253600
:1000200075162039653365396537E334E11EA01252
:10003000EC3A8A060000F801F901F701FA014708D5
:10004000031D2528460803193F281030C800031057
:10005000C40DC50DF70DFA0D47087A02031D3228AD
:1000600046087702031C3B284608F702031CFA03E4
:100070004708FA020314F80DF90DC80B27280800E9
:100080000B08C5008B13831603178C170C14000084
:10009000000083120313C51B8B170318782803175E
:1000A0000C087F390313C50003170D080313C6009E
:1000B00003170F080313C70045080C1E5D2899009D
:1000C000460803178D000313470803178F00031317
:1000D0000B08C8008B13831603178C170C14000031
:1000E000000083120313C81B8B17C40B78289828B1
:1000F00003170C0D0E0D7F390313C50003170D08F0
:100100000313C60003170F080313C70045080C1E8E
:1001100087289900460803178D0003134708031723
:100120008F008D0A03198F0A03100313C40B402894
:100130000800CC010408CB004C10831B4C14450E66
:10014000F038C700C707E23EC800323ECA00450883
:100150000F39C807C807CA07E93EC900C907C90758
:10016000440E0F39C907CA07C90DCA0DCA09CA0DFD
:1001700044080F39CA07C70D0730C6000A30CA073E
:10018000C903031CBF28C907C803031CC328C80729
:10019000C703031CC728C707C603031CCB28463068
:1001A0008400831307304B054B1384074A30040245
:1001B00003194B170008F700031DE6284B1BE62820
:1001C0004B1AEE28CB19E6282030E928CB154B1224
:1001D0003030F70777080C1EEB289900840A4B1F74
:1001E000D628080045308400831300080319052928
:1001F0000630F800F701F70BFB28F80BFA287B30E4
:10020000F700F70B0129800BF8288A110A12392A06
:1002100003081F398300813083169900A6309800A7
:100220009030831298000A30A0000130A2001530EF
:10023000A1000130A4000F30A3000130A60015304A
:10024000A5000130A800AC30A7000130AA00BA30E8
:10025000A9000130AC00AB30AB000130AE0068301B
:10026000AD00B001AF01B201B101B401B301B601FB
:10027000B501B801B701BA01B901BC01BB01BE01AA
:10028000BD01C001BF01C2013930C10083161F1476
:100290009F141F159F1107309C0083131F109F1080
:1002A0001F159F111F1383121F179F1783169F1768
:1002B00083121F14C301200843020318A029003031
:1002C000F8001F08C73978049F002130F700F70BAA
:1002D00067291F151F196A2983161E088312AF0785
:1002E0001E0803181E0FB0070830F8001F08C73992
:1002F00078049F002130F700F70B7C291F151F1988
:100300007F2983161E088312B1071E0803181E0FCB
:10031000B2071830F8001F08C73978049F00213051
:10032000F700F70B91291F151F19942983161E0832
:100330008312B3071E0803181E0FB407C30A5B29F4
:100340003008C5002F08C400C7012008C6001B20C4
:100350007908B0007808AF003208C5003108C40041
:10036000C7012008C6001B207908B2007808B10038
:100370003408C5003308C400C7012008C6001B208C
:100380007908B4007808B300043003178D000030FA
:100390008F00031004300313C40040201030840089
:1003A0003008C5002F08C4009920073003178D00BE
:1003B00000308F00031406300313C40040201030B7
:1003C00084003208C5003108C40099200C3003179E
:1003D0008D0000308F00031006300313C40040204E
:1003E000103084003408C5003308C4009920103050
:1003F00003178D0000308F0003140E300313C40068
:100400004020103084002E08C5002D08C40099201B
:100410000A300C1E092A99000D300C1E0D2A990075
:10042000831686168312861E1A2A3C08AE003B08E5
:10043000AD00342A14302D07F8002E08FA000318F6
:10044000FA0A7A083C02031C302A031D2B2A3B08B7
:1004500078020318302A8316061283120616342AED
:1004600083160612831206120430C400C830C50079
:0A047000F228C40B362A5A29630053
:02400E00323F3F
:00000001FF
;PIC16F877A
;CRC=6D42  CREATED="06-mai-19 11:21"
